:020000040800F2
:10400000201200202DBC0008C9BB0008CBBB000853
:10401000CDBB0008CFBB0008D1BB000800000000EA
:10402000000000000000000000000000D3BB0008FA
:10403000D5BB000800000000D7BB0008D9BB0008B2
:104040006DBC000871BC000875BC000879BC000894
:104050007DBC000881BC000885BC000889BC000844
:104060008DBC000891BC000895BC000899BC0008F4
:104070009DBC0008A1BC0008A5BC0008A9BC0008A4
:10408000ADBC0008B1BC0008B5BC0008B9BC000854
:10409000DBBB0008C1BC0008C5BC0008C9BC0008E7
:1040A000CDBC0008D1BC0008D5BC0008D9BC0008B4
:1040B000DFBB0008E3BB0008E5BC0008E9BC000862
:1040C000EDBC0008F1BC0008F5BC0008F9BC000814
:1040D000FDBC000801BD000805BD000809BD0008C1
:1040E0000DBD000811BD000815BD000819BD000870
:1040F0001DBD000821BD000825BD000829BD000820
:104100002DBD000831BD000835BD000839BD0008CF
:104110003DBD000841BD000845BD000849BD00087F
:104120004DBD000851BD000855BD000859BD00082F
:10413000DFF8740B406B7047DFF8981E48637047D8
:10414000DFF8901E48707047DFF8880E407870479F
:1041500038B901EBC100052190FBF1F000F5A0702A
:1041600006E001EB8100A0F5C860092190FBF1F0A9
:1041700000B2704710B5DFF8604E00206060A061AB
:1041800003F0E0FA08B9082004E0042806DB02F096
:10419000D7FA0620BDE8104003F0B0BC012003F0C0
:1041A000ADFCDFF8380E006A606110BD30B585B037
:1041B00000240A25DFF8280E03F0A1FF04196D1E64
:1041C000F8D10A20B4FBF0F0642148439021B0FB01
:1041D000F1F24DA100F04AF800226946012001F0F9
:1041E00098F805B030BD30B583B004460D460621C1
:1041F000684603F0AFFF2A4600F037F8DFF8A82A38
:10420000527805F109016AB9642D07DA0A2D03DA3B
:10421000002D05D5002901D443210CE0432116E0EF
:1042200043210FE0642D0ADA0A2D03DA002D08D5A8
:10423000002904D445218DF80210202107E04521F2
:1042400005E045218DF8011020218DF80210202075
:104250008DF803108DF804006946204601F010F82F
:10426000DFF8741D1420086037BD28A1684603F0EC
:1042700098BF70B5DFF86C4D0FF2940182B0607892
:1042800020B900911023602200210BE0012802D107
:104290006068009002E0022808D10091102360229B
:1042A0000021002004F052F8606025E0032823D1AB
:1042B0000025542616E00FF2F8101C2101FB050022
:1042C00060600E21F01D04F068F860680090102313
:1042D0000E220021F0B204F039F86060F61F0A20C7
:1042E00004F0FCF920788642E5DA6D1C0E30062DCC
:1042F0002070DEDB002020706078401CC0B20428F3
:1043000008BF0020607073BD25665600256400005C
:10431000000000000000000000000000000000009D
:10432000000000000000000000000000000000008D
:1043300000000000000000000000000000000088F5
:1043400098BFBF9888000000008080808080800037
:10435000000000000000000000000000000000005D
:10436000000000000000000000000000000000004D
:10437000002060606060606090909090909090905D
:10438000909090909090909090909090909090902D
:1043900090606060606060606070F8888482828392
:1043A00083838383838282828283838383838382E2
:1043B00082828282868484848484848484848484C3
:1043C0008484848484848282828282828282FE00C7
:1043D00000000000000000000000000000000000DD
:1043E00000000000000000000000000000000000CD
:1043F000000000000000000000000000000000902D
:10440000B0FEFEB0900000000080808080808000C0
:10441000000000000000000000000000000000009C
:10442000000000000000000000000000000000008C
:10443000002060606060606090909090909090909C
:10444000909090909090909090909090909090906C
:1044500090606060606060606070F88884828283D1
:104460008383838383828282828383838383838221
:104470008282828286848484848484848484848402
:104480008484848484848282828282828282FE0006
:1044900000F0F00000F0F0F00000FCF8F0E0C08068
:1044A000000F0F00000F0F0F00003F1F0F07030149
:1044B00000000000000000000000000000000000FC
:1044C0000000000000000000000000000001FFFFED
:1044D00001010101010181C67E380080FFFF818159
:1044E000010101010000000000202020E0E0008028
:1044F00040402060C04000808080FFFF818080803D
:10450000000000000000008040402020204040804B
:10451000000000003F7F4484848484848447270013
:104520000000008040402020204040C000000000EB
:1045300020C3828684848C8C8878300000000080C0
:1045400040402020204040C00000000020C3828660
:1045500084848C8C8878300000000000000000808B
:1045600080C0602010180C86E0E0E0ECFCF2F3F173
:10457000F0F8ECE4E4E2E3010000000000000000D9
:104580000080C0402030180CC0C0C0D8F8E4E6E37A
:10459000E1F1D8C8C8C4C603FCFCFC00000000C0A0
:1045A0003826250101010101010101027F7F7F06FB
:1045B0000909090909093948484848301008080418
:1045C000FCFC00000000C0382625010101010101AA
:1045D000010102027F7F06090909090909394848D2
:1045E00048483010080804040000000000000000E3
:1045F0008080C06030180C8600E0E0ECF4F6F6FB3A
:10460000F5E8E8E4E2E2E10000000000000000005C
:10461000000080C06030180C00C0C0D8E8ECECF698
:10462000EBD1D1C8C4C4C201FEFEFE804040605838
:1046300054020202020202843F3F3F0001010101D5
:104640000107050506020100FEFE80404060585447
:1046500002020202020284843F3F000101010101C3
:104660000705050602010000F8B585780FF2AC07D2
:10467000A5F130060A2E3CBFA5F13003DBB2C578A8
:10468000A5F130060A2E3CBFA5F13002D2B2007867
:10469000DFF8446CA0F130050C460A2D3CBFA0F1B8
:1046A0003001C9B20025182000FB015C05EB060EA5
:1046B0001CF807C08EF860C000FB035E05EB060C1B
:1046C0001EF807E00CF890EF00FB025E6D1C1EF870
:1046D00007E08CF818E0182DE6DB102744B9022318
:1046E0000C220821304600F094FC06F1D80000E0CE
:1046F0003046002500F007FE00F001FE6D1C082D7D
:10470000F8DB7F1EEAD13CB900F090FA03F09AFE84
:10471000BDE8F14003F0E5B9F1BD000000E010088C
:104720000810E00000000000000F102020100F0013
:1047300000000000001010F8000000000000000061
:104740000020203F2020000000000000007008082A
:10475000088870000000000000302824222130006A
:104760000000000000300888884830000000000089
:104770000018202020110E00000000000000C020C2
:1047800010F800000000000000070424243F24006B
:104790000000000000F808888808080000000000F9
:1047A0000019212020110E000000000000E01088F8
:1047B0008818000000000000000F112020110E00DA
:1047C0000000000000380808C83808000000000099
:1047D0000000003F0000000000000000007088089A
:1047E0000888700000000000001C222121221C000B
:1047F0000000000000E010080810E00000000000C9
:104800000000312222110F00000000000000000013
:104810000000000000000000003030000000000038
:104820000000000010B582B00FF2180000240090C4
:1048300010232001102200F062FD641C062CF6DB20
:1048400013BD0000000000C0F03808040404040890
:10485000081C00000000000F1F3060404040402056
:1048600030080000000000C0F0180C0404040C180C
:10487000F0C00000000000071F3060404040603082
:104880001F07000000000004FC1C38E0C00000040A
:10489000FC040000000000407F40000001071E38BB
:1048A0007F00000000000004FCFC84848484E40495
:1048B0000C100000000000407F7F4000000003005B
:1048C000000000000000000000040404FCFC0404DC
:1048D0000400000000000000004040407F7F404096
:1048E00040000000000000C0F03808040404040C7C
:1048F0001C000000000000071F3860404042423E9C
:104900003E0202002DE9F04184B0044688460621AB
:1049100001A803F01FFCE3A52246294601F0F6FE9C
:10492000DFF8B066707801AF28B9642CA8BF4320C7
:1049300008DA432004E0642CA8BF452002DA4520B1
:10494000B8702020F87001A9012001F007FB7079F0
:10495000411C717110230FF2580101EB40100090BF
:1049600010220021292003F0F1FC7079032804BFF4
:1049700000207071062101A803F0ECFB4246294695
:1049800001F0C4FE707828B9642CA8BF432008DA6F
:10499000432004E0642CA8BF452002DA4520B8700B
:1049A0002020F87001A9382001F0D8FABDE8FF8175
:1049B00000003060C0800000000000000000000027
:1049C0000000180C060301000000000000000000B9
:1049D00000003060C0803060C08000000000000037
:1049E0000000180C0603190C06030100000000006B
:1049F00000003060C0803060C0803060C080000047
:104A00000000180C0603190C0603190C060301001C
:104A10000000183060C080000000000000000000AE
:104A200000000C0603010000000000000000000070
:104A30000000183060C0983060C0800000000000A6
:104A400000000C0603010C0603010000000000003A
:104A50000000183060C0983060C0983060C080009E
:104A600000000C0603010C0603010C060301000004
:104A700010B582B0012808BF0FF2300103D0022820
:104A800008BF0FF2E801009100F038FA012400900D
:104A900010232001102200F032FC641C062CF6DBEF
:104AA00000F0C4F8BDE8134003F01BB8E01864E25E
:104AB00082010101010182E26418E000030C10216F
:104AC000274E5850584E2721100C0300F00C0201BD
:104AD000010101020F00000000000000030C08109B
:104AE0001010100806000000000000000060101008
:104AF000909090E00000000000000000000E1111F6
:104B00001010081F10180000000000000001010133
:104B1000FF00000000000000000000000010101066
:104B20001F10101000000000000000000000000036
:104B30000000000000000000000000008080808075
:104B40008080808080800000000000000107798064
:104B5000008079070100000000000000000000074D
:104B60001C0700000000000000000000E018040224
:104B700012214181814122120418E000030C10200F
:104B80002844424141422428100C0300F00C020149
:104B9000010101020F00000000000000030C0810DA
:104BA0001010100806000000000000000060101047
:104BB000909090E00000000000000000000E111135
:104BC0001010081F10180000000000000001010173
:104BD000FF000000000000000000000000101010A6
:104BE0001F10101000000000000000000000000076
:104BF00000000000000000000000000080808080B5
:104C00008080808080800000000000000001071983
:104C1000E0B00D03010000000000000000101817B4
:104C20000001161810000000000000004FF47A7018
:104C300003F054BD70B582B002F080FD801E0328E1
:104C40000FF268050DD8DFE800F00204070A2C46D1
:104C500007E00FF2041404E00FF2881401E00FF2F1
:104C6000102405F18C00009000F048F9DFF86C5634
:104C7000287880B90226142000FB064028380090CE
:104C800010230A2070430A2200F039FB761C092EFB
:104C9000F1DB012004E05021102003F07EFB002016
:104CA000287073BD256400002C03002001FF00E183
:104CB0001FE000FF010000011E0100011E010000B5
:104CC000006010109090E0000000000E111110081C
:104CD0001F1800001010F0402010103000001010BD
:104CE0001F1010000000000010F02010101010E045
:104CF0000000101F10000000101F10000000101313
:104D0000F30000000000000010101F101000000051
:104D100010F02010101010E00000101F1000000014
:104D2000101F100000E010101010F0100000007DA7
:104D30008A8A8A8A9170000000000080E0F8FE07ED
:104D400007FEF8E080000000101C1F1F1F1F1F122D
:104D5000121F1F1F1F1F1C10001C222141414182D6
:104D60000700001E081010101008070000C0A090D7
:104D7000909090A0C00000070810101010080400C8
:104D800010F02010101010E00000101F10000000A4
:104D9000101F1000002020202020202020000000D4
:104DA000000000000000000001FF21212121F90383
:104DB0000400101F1010101010180400001010F044
:104DC0004020101030000010101F101000000000D4
:104DD000001010F04020101030000010101F1010B4
:104DE0000000000001FF4140404041FF0100101F52
:104DF00010000000101F100000001013F30000004E
:104E00000000000010101F10100000000000E01053
:104E1000101010F0100000609D8A8A8A8A9170003C
:104E200001FF2010101010E00000101F1000000003
:104E3000101F100000202020202020202000000033
:104E40000000000000000000010779800080790761
:104E50000100000000071C07000000000000101007
:104E6000FE1010100000000000000F1010080000DD
:104E700001FF0100000000000000101F10101010C2
:104E80001018040000C0201010101020C0000007EF
:104E9000081010101008070010F00010F01000F0BB
:104EA000100000031C0300031C030000002020204E
:104EB0002020202020000000000000000000000052
:104EC00001077980008079070100000000071C07B6
:104ED0000000000000C0201010101020C0000007CB
:104EE000081010101008070000001010FE1010101D
:104EF0000000000000000F10100800001023102216
:104F00000021002003F022BAF0B5DFF8D413DFF857
:104F1000C8438D7813185DB90125CD7000250D713A
:104F200008254D7100250D704D7001258D7029E00B
:104F3000CD782DBB0E7991F805C006EB000EAE447E
:104F40002F199EF833E087F8D8E0571906EB030EC7
:104F5000AE446D1C9EF833E03F19EDB2AC4587F8C6
:104F6000D8E0EAD20CF101054D71761EEDB20B2DA1
:104F70000E7105D10A20487100200871012026E039
:104F80000D792DBBCE7891F805C0012510E02F18C2
:104F900097F833E077193F1987F8D8E006EB020E4F
:104FA000EF18AE44A64497F833708EF8D8706D1C95
:104FB000EDB26545EBD3ACF101004871721CCA70CB
:104FC000C0B228B901204871092008710020C870BA
:104FD000F0BD00002C030020944200202800002097
:104FE000002801402043002010B5002100220123A9
:104FF000934003405400042AB9BFC4F10704A340FE
:10500000E41FE340521C5918082AC9B2EFDB0846D6
:1050100010BD2DE9F44F5FEA030882B08246B04D1F
:105020000AD1287828B900260120002728706E7040
:105030000CE0AE686F6910E0B8F1010F0BD1687831
:1050400030B928700026012000276870AE7004E097
:10505000EE68AF6901E02E69EF699DF80800DFF89E
:105060007892484340000024009008E014F80A00B9
:10507000FFF7BAFF04EB0901641C81F8D80000981F
:105080008442F3D39DF80810964A002303E09DF86C
:10509000080003EB4003009883422ED200240AE06C
:1050A00022F810A0641C32F810A04FEA1A208CF8E5
:1050B000D8008EF8D8A08C42E9D25818201800EBFE
:1050C000090E181900EB090C9EF8D8B09CF8D8A06E
:1050D0004BEA0A2A22F810A0B8F1010F06D1002EDF
:1050E00014BF2AFA06FA0AFA07FAD9E7002F0CBF0A
:1050F0000AFA06FA2AFA07FAD2E7002408E004EBD3
:10510000090A641C9AF8D800FFF76EFF8AF8D800E5
:1051100000988442F3D31FB9102E08D1002610271F
:105120007F1EB8F1000F04D1AE606F6108E0761CFD
:10513000F7E7B8F1010F07BFEE60AF612E61EF61D5
:10514000BDE8F78FF8B504460D46674E142130468A
:1051500003F000F80FF2680724B900230A220121A6
:10516000384606E0012C07D101230A22012107F16C
:105170002000FFF74EFF06E0022C04D10A22012195
:105180003846FFF7C1FE009610230A220021562060
:1051900003F0DCF802F0AEFC04280FF2CC0403D1DB
:1051A00004F10C00009005E0002D06BF07F114008B
:1051B00000900094102306220021502002F09AB99A
:1051C00010188CC66363C68C1810426331180C0C1F
:1051D0001831634200F01E1FF00000FF8080FF00C6
:1051E00042C68C183030188CC64208183163C6C6C7
:1051F000633118088C8CC6C68C8CC6C68C8C313139
:105200001818313118183131008C8C8C8C8C8C8CA6
:105210008C8C8C8C8C8C8C00003131313131313163
:10522000313131313131310080C0603098CC66335A
:105230003366CC983060C08088CC6633190C060386
:1052400003060C193366CC88113366CC983060C0E5
:10525000C0603098CC6633110103060C193366CC5C
:10526000CC6633190C06030100F0FEFFF000007F4E
:105270007F7F7F00FF0FE1E00FFFFF80BFBF80FF58
:1052800038B50C4608B1092801DB00250CE0451EA5
:105290000AE00A20154901EB401000901023280174
:1052A000102200F02CF86D1C2078A0B114F8010B2E
:1052B0002028EED02D2808BF0C20EBD0A0F1300123
:1052C0000A2902D23038C0B2E4E7A0F14101062930
:1052D00038BF3638F7D331BD700300205943002062
:1052E000580500205C40002048040020FC740008A1
:1052F000C0B201EB001000901023E800082200214A
:10530000C0B203F023B8009010230C2068430C2295
:10531000704738B50C46451E72B908B1112800DB3C
:1053200000252078C0B114F8010B0FF230012038AD
:10533000FFF7DEFF6D1CF4E708B1112809DB00253B
:1053400007E014F8010B0FF204613038FFF7D0FFCB
:105350006D1C20780028F4D131BD00000000000051
:10536000000000000000000000000000000000F845
:1053700000000000000000333000000000100C06A8
:10538000100C0600000000000000000040C0784043
:10539000C0784000043F04043F040400007088FC0F
:1053A00008300000001820FF211E0000F008F00067
:1053B000E018000000211C031E211E0000F00888D8
:1053C000700000001E2123241927211010160E0042
:1053D000000000000000000000000000000000E0ED
:1053E0001804020000000007182040000002041802
:1053F000E00000000040201807000000404080F05E
:10540000804040000202010F01020200000000F093
:10541000000000000101011F010101000000000067
:105420000000000080B070000000000000000000DC
:105430000000000000010101010101010000000065
:1054400000000000003030000000000000000000FC
:1054500080601804006018060100000000E01008D9
:105460000810E000000F102020100F00001010F8AE
:10547000000000000020203F2020000000700808ED
:10548000088870000030282422213000003008886D
:10549000884830000018202020110E000000C02095
:1054A00010F8000000070424243F240000F80888B6
:1054B000880808000019212020110E0000E0108843
:1054C00088180000000F112020110E000038080875
:1054D000C83808000000003F000000000070880885
:1054E00008887000001C222121221C0000E0100806
:1054F0000810E0000000312222110F00000000C05F
:10550000C0000000000000303000000000000080FB
:1055100000000000000080600000000000008040EB
:105520002010080000010204081020004040404004
:105530004040400004040404040404000008102057
:10554000408000000020100804020100007048089C
:105550000808F0000000003036010000C030C82804
:10556000E810E0000718272423140B000000C038BF
:10557000E0000000203C23020227382008F8888839
:1055800088700000203F202020110E00C030080845
:1055900008083800071820202010080008F808081C
:1055A0000810E000203F202020100F0008F8888815
:1055B000E8081000203F20202320180008F88888E1
:1055C000E8081000203F200003000000C030080859
:1055D0000838000007182020221E020008F80800E2
:1055E0000008F808203F210101213F20000808F8A9
:1055F000080800000020203F2020000000000808CC
:10560000F8080800C08080807F00000008F888C08B
:1056100028180800203F20012638200008F808003C
:1056200000000000203F20202020300008F8F80073
:10563000F8F80800203F003F003F200008F830C085
:105640000008F808203F200007183F00E010080875
:105650000810E0000F10202020100F0008F80808A4
:105660000808F000203F210101010000E0100808B7
:105670000810E0000F18242438504F0008F88888DC
:1056800088887000203F2000030C302000708808BC
:10569000080838000038202121221C00180808F8CA
:1056A000080818000000203F2000000008F808004B
:1056B0000008F808001F202020201F00087888001C
:1056C00000C83808000007380E010000F80800F88C
:1056D0000008F800033C0700073C03000818688036
:1056E0008068180820302C03032C30200838C800AC
:1056F000C83808000000203F2000000010080808FB
:10570000C83808002038262120201800000000FE9C
:10571000020202000000007F40404000000C30C048
:1057200000000000000000010638C0000002020274
:10573000FE000000004040407F0000000000040226
:105740000202040000000000000000000000000051
:105750000000000080808080808080800002020441
:105760000000000000000000000000000000808039
:10577000808000000019242222223F2008F80080A7
:1057800080000000003F112020110E00000000806A
:1057900080800000000E11202020110000000080F9
:1057A0008088F800000E112020103F20000080802B
:1057B00080800000001F222222221300008080F03F
:1057C000888888180020203F20200000000080806A
:1057D00080808000006B94949493600008F80080AF
:1057E00080800000203F210000203F20008098980A
:1057F000000000000020203F20200000000000806A
:105800009898000000C08080807F000008F80000A9
:1058100080808000203F24022D302000000808F8FE
:10582000000000000020203F2020000080808080B9
:1058300080808000203F20003F20003F808000804B
:1058400080800000203F210000203F200000808059
:1058500080800000001F202020201F00808000800A
:105860008000000080FFA12020110E0000000080B9
:1058700080808000000E112020A0FF8080808000AA
:105880008080800020203F212000010000008080D7
:10589000808080000033242424241900008080E0CC
:1058A000808000000000001F202000008080000099
:1058B00000808000001F202020103F20808080007A
:1058C0000080808000010E3008060100808000808A
:1058D000008080800F300C030C300F0000808000AF
:1058E000808080000020312E0E31200080808000DA
:1058F0000080808080818E7018060100008080808A
:10590000808080000021302C2221300000C7251724
:1059100010101020000708101010100800000000E0
:10592000FF00000000000000FF0000000007F51766
:105930001010101000003F010101010100060101DB
:105940000202040400000000000000000000E0105B
:10595000080810E020000F102020100F0000101089
:10596000F8000000200020203F20200000007008E8
:10597000080808F0200030282422213000003008D8
:1059800008088870200018202121221C0000804077
:1059900030F8000020060524243F24240000F88865
:1059A00088880808200019202020110E0000E0102F
:1059B0008888900020000F112020201F0000180868
:1059C00008886818200000003E0100000000708870
:1059D0000808887020001C222121221C0000F008E9
:1059E000080810E0200001122222110F10231022BB
:1059F000002102F0ABBC38B551EA0002DFF8B44C2C
:105A000014D100250CE0012D05D1009400F047F8D9
:105A100002F09CFC04466D1C022D3EDA002DF2D1F2
:105A200000941023102200210020F1E7C8B10029C2
:105A300033D101280AD104F1200000901023102254
:105A4000502002F083FC04F1400015E0022824D12C
:105A5000009410231022002002F078FC04F1600072
:105A600017E0D1B101290DD104F1200000F016F8A2
:105A700002F06CFC04F18000009010231022002141
:105A8000002008E0022908D10094FFF7AFFF04F1DD
:105A9000A00000F003F802F059FC31BD0090102383
:105AA000102200215020704738B50C4608B16128FB
:105AB00001DB002512E0451E10E014F8010B0FF287
:105AC00028012038C0B20C2202FB001000900C23E9
:105AD00006220021E8B202F039FCAD1D2078002832
:105AE000EBD131BD0000000000000000000000000C
:105AF0000000000000007C00000000000200000028
:105B000000040304030000000000000090FC90FC6F
:105B100090000003000300001824FE4488000102E6
:105B2000070201003844F8D02CC000030001020134
:105B3000C038E418E0200102020102010403000061
:105B400000000000000000000000F8060100000056
:105B500000030400000106F8000000040300000038
:105B60009060F8609000000001000000002020F824
:105B700020200000000000000000000000000403DE
:105B80000000000020202020202000000000000055
:105B90000000000000000002000000000000C03013
:105BA0000C02040300000000F8040404F8000102E1
:105BB000020201000008FC000000000203020000D5
:105BC000188444241800030202020200080424245A
:105BD000D800010202020100C0A098FC8000000071
:105BE000020302007C242424C400010202020100FA
:105BF000F0482424C8000102020201000004C43459
:105C00000C00000003000000D8242424D800010266
:105C10000202010038444424F8000102020100009D
:105C20000000100000000000020000000000200042
:105C30000000000006000000006090080400000062
:105C40000001020050505050505000000000000071
:105C50000004089060000002010000001804C42441
:105C60001800000002000000F008E4F4847800014D
:105C70000202020100E09CF0800002030000030227
:105C800004FC2424D800020302020100F8040404E6
:105C90000C0001020202010004FC0404F8000203EB
:105CA0000202010004FC24740C000203020203003F
:105CB00004FC24740C00020302000000F0080444F9
:105CC000CC4000010202010004FC2020FC0402037D
:105CD000000003020404FC040400020203020200A8
:105CE000000404FC04040C080807000004FC245011
:105CF0008C0402030200030204FC040000000203FF
:105D000002020203FC3CC03CFC040300030003024B
:105D100004FC30C4FC04020302000300F804040481
:105D2000F80001020202010004FC2424180002030E
:105D300002000000F8848404F80001020207050054
:105D400004FC246498000203020003021824244483
:105D50008C000302020201000C04FC040C0000028F
:105D60000302000004FC0000FC0400010202010028
:105D7000047C80E01C040000030000003CC07CC0E8
:105D80003C00000300030000049C609C040002032C
:105D900000030200043CC03C0400000203020000B7
:105DA0000C84641C04000203020203000000FF01D3
:105DB0000100000007040400000638C000000000D5
:105DC00000010600000101FF0000000404070000BC
:105DD00000020102000000000000000000000000BE
:105DE0000000080808080808000102000000000080
:105DF000000000000040A0A0C00000010202030259
:105E000002FE2020C00000030202010000C020208A
:105E1000600000010202010000C02022FE0000011B
:105E20000202030200C0A0A0C000000102020200A2
:105E30000020FC2222040002030202000040A0A075
:105E4000602000050A0A0A0402FE2020C0000203A6
:105E5000020003020020E60000000002030200002E
:105E6000000020E6000008080807000002FE80602D
:105E700020000203000102000202FE0000000202F4
:105E800003020200E020E020C00003000300030042
:105E900020E02020C00002030200030200C02020F6
:105EA000C00000010202010020E02020C000080F15
:105EB0000A02010000C02020E0000001020A0F08D1
:105EC00020E0402020000203020000000060A0A0AB
:105ED00020000002020203000020F8202000000041
:105EE0000302020020E00020E000000102020302A1
:105EF00020E000E020000000030000006080E0805F
:105F000060000003000300002060806020000203A6
:105F10000003020020E00000E02008080503000064
:105F20000020A0602000000203020200000020FF09
:105F30000100000000070400000000FF0000000056
:105F4000000F00000001DF20000000040700000037
:105F5000020101020100000000000000F8B5044643
:105F60000D4600260FF248070CE0142101FB0070DB
:105F70000090F6B20A2000FB064010230A22FFF729
:105F8000BEF9761C287888B115F8010B432808BFA4
:105F90000B20EAD0452808BF0C20E6D0A0F1300144
:105FA0000A293ABF3038C0B20A20DEE7F1BD00004E
:105FB00000E0180404040418E000000F30404040E2
:105FC00040300F0000000808FC0000000000000046
:105FD00040407F404000000000780404040404882E
:105FE0007000006050484442414070000038040492
:105FF0008484C830000000384040404040211E00EA
:10600000000080601008FE00000000070404444403
:106010007F4444000000FC048484840404000038AD
:106020004141404040211E0000C0308884848404E7
:106030001800000F3140404040211E00001C0404A5
:106040008444340C04000000007E010000000000C5
:1060500000708804040404887000001C224141413F
:1060600041221C0000F0080404040418E000003081
:1060700041424242221907000000000000000000D7
:106080000000000000000000000000001C1CC030E8
:106090000804040408300000071820404040201085
:1060A0001C120C0202FE8282E20200000000407F0D
:1060B0004000030000210A2202E090FBF2F0491C9C
:1060C0000028FAD1C8B270472DE9F04FDFF8784CBC
:1060D00083B06420A0614FF4C878C4F80C8001201C
:1060E00000F0B5F94FF4967002F0F8FA00F028FBD2
:1060F00000F01EFEDFF8546CDFF8540CB179DFF8C5
:10610000547C0A46072A24D8DFE802F00404131658
:10611000191C1F21012A08BF07F1100502D009B977
:1061200007F114054FF00C0CBB690CFB02029360E5
:106130000FE007F11C050CE007F1200509E007F16D
:10614000180506E0DFF8105C03E0751C01E007F1BC
:1061500024050C2303FB0103D3F800905A68009236
:106160001B8901937378012B0AD1002918BF0129DB
:1061700006D1D0F86090416EB0F8680000910190AF
:10618000012000F064F901F0CDFAB0F5807F4FF402
:10619000167A1FD1B079062812D17078C8B100F0F4
:1061A000B4F800F0ACF83861BBF5167FB8BFD34641
:1061B000B0F5167FC7F814B04EDAC7F810A04BE060
:1061C00028680099814247DA00F093F8B8BF084682
:1061D000286041E001F0A6FA402816D1B0790628DF
:1061E00008D1707800285ED100F09CF800F094F897
:1061F000386158E02868484555DA01990818286040
:106200008145D8BF484628604DE001F08BFAB0F5D3
:10621000014F2AD1B079062812D17078C8B100F0A8
:1062200074F800F06CF83861BBF5167FB8BFD34640
:10623000B0F5167FC7F814B00BDAC7F810A008E065
:1062400028680099814204DA00F053F8B8BF084684
:106250002860642002F042FA00F06AFDC4F80C8065
:106260002820A0610120307026E001F05BFA48F29E
:106270004001884223D1B079062807D1707878B9D7
:1062800000F050F800F048F8386109E02868484507
:1062900006DA0199081828608145D8BF4846286069
:1062A000642002F01BFA00F043FDC4F80C802820A3
:1062B000A06102203070012000F0C9F806E001F072
:1062C00031FA00F01CFD04BF0020E06001F009FC81
:1062D000E06800287FF454AF01F02CFA00F028FDAC
:1062E0004FF44870E060C820A06101203071BDE823
:1062F000F78F0199401A28600099884270473969E0
:10630000834609B20120FDF723BF401E70700120B3
:10631000796909B2FDF71CBF78610020396909B2BB
:10632000FDF716BF012070700020796909B2FDF7F2
:106330000FBF70B5DFF8104AE069652804D3BDE8E7
:106340007040002001F0F2B9E068DFF8005AB0F5C3
:106350002F7F04D22879012804BF0020287101F082
:10636000E1F9000404D5002001F0E4F96420E061C3
:10637000E06908B900F0E4F901F0D4F9B0F5807FE4
:106380004FF4487605D1A87900280CBF0920401E9B
:1063900008E001F0C7F940280AD1A8790928B4BF5C
:1063A000401C0020A87100F0C3FCE66002F04AF82F
:1063B00001F0B8F9B0F5014F05D001F0B3F948F29A
:1063C0004001884232D10020A061A879092804D078
:1063D000082809D0FFF778FE26E003F0E1F800F086
:1063E000A7FC02F02FF81FE001F07BFBFEF71EFC7C
:1063F00002F028F801F0E4FA01F090F9012803D145
:1064000002F01DFD02F091FEDFF8145C287848B11F
:10641000FEF72EFB01F065FBFEF708FC002028705C
:1064200002F010F800F084FCE6600DE001F07AF96B
:1064300000F065FC04BF2879002805D101F07AF945
:1064400000F076FC0020E0600020BDE870402DE9FF
:10645000F0418AB0044601A8142101F07BFE00201F
:10646000ADF80000DFF8E4580FF264200088ADF8C2
:1064700018000FF260200088ADF80200A879092802
:106480000BD0082808D005EB8000002241690020CD
:10649000FEF73FFFA879082877D0A879DFF8C47CF9
:1064A00083A638B9786800F02DF978680A2190FB46
:1064B000F1F03AE0012807D1386800F023F9386894
:1064C0000A2190FBF1F030E0022807D1F86800F0D3
:1064D00030F9F8686421B0FBF1F026E0032807D119
:1064E000386900F026F938696421B0FBF1F01CE04E
:1064F000042807D1B86800F005F9B8680A2190FBB4
:10650000F1F012E0052813D1DFF84C7838680A2141
:1065100000F010F938680A21B0FBF1F10A2202FB01
:1065200011023146FDF7A2FE3868FFF7C3FD23E0F4
:1065300006280AD16878002807BF03225EA103223B
:106540005EA101A803F0E4F915E0072816D1387D13
:10655000DFF8006D002807BF032259A1032259A1CB
:1065600001A803F0D5F93078397D884203D001F0D5
:106570003BFF387D30700220A87006E0092804D166
:106580000FF2541101A801F00CFE012C0FF2381883
:106590004EA6DFF8B47744D1B8693C283ED22878BB
:1065A000012816D100F0B5F8A879052804D100F02B
:1065B000BBF800F0A1F802E0002201A90920FEF7D3
:1065C000A8FEA878093000223146C0B2FEF7A1FE2D
:1065D00012E0022818D100F0A2F8A879052818D0F6
:1065E000002201A90920FEF794FEA87809300022B4
:1065F00006A9C0B2FEF78DFEB869002854D1642008
:10660000B861002028704FE000F083F8A8790528D1
:10661000E6D100F089F800F06FF8E4E700F07FF8C9
:106620003BE0A879082822D1B86900283CD101F0C4
:10663000DAF96978012908D1014600F0DCFC0A2169
:1066400090FBF1F20FF2A00104E00A2190FBF1F2BD
:106650000FF29C0107A801F0A4FD002207A9082061
:10666000FEF757FEFDF7A2FD1420B8611CE00928D3
:1066700004D101A90420FFF717FA15E000F04FF844
:10668000A879052804D100F04FF800F035F802E0B1
:10669000002201A90920FEF73CFEA878093000225B
:1066A0004146C0B2FEF735FE0AB0BDE8F0810000F9
:1066B00025640000D46900084354000046540000DB
:1066C000525400004C540000202020002000000004
:1066D0003E0000003C00000020466163746F727948
:1066E000205265736574000025647D200000000061
:1066F00025647B2000000000A8780830012269464C
:10670000C0B270470A2190FBF1F2314601A801F0B6
:1067100048BD00220DF102010820FEF7FABD00225B
:1067200031460820FEF7F5BD002201A90920FEF739
:10673000F0BD6421B0FBF1F2314601A801F031BD9A
:10674000012000F0F7BF70B50E0182B0044650255D
:10675000F6B20FE0102105F1100001F01EFE0094CA
:10676000102310220021E8B201F0F0FD192001F001
:10677000B5FF103DB542EDDA73BD2DE9F14FDFF8FD
:10678000D405DFF8C85582B09046B0F914000A224B
:1067900090FBF2F000B2642290FBF2FA5FFA8AFA00
:1067A00002FB1A030A2493FBF4FB5FFA8BFB02FB48
:1067B0001A0004FB1B00C0B20190E878012803D145
:1067C000E8630020286406E0022805D10020E86381
:1067D000102028640020E8700020A8630C466000A8
:1067E0000090DFF80C6C05E0FEF7FEFB89F838013D
:1067F000781CA863AF6B0098DFF8F89B87421FDA1C
:1068000006EB4A10B944385CFEF7EEFB89F8D80075
:1068100006EB4B10385CFEF7E7FB89F8F8000198AF
:1068200006EB4010385CFEF7DFFB89F81801B81959
:10683000697801290CBF90F8E00190F8A001D3E736
:106840009DF80800E96B2A6CDFF8AC3BC0F103004F
:1068500060434FEA400A01E000988244062060430A
:1068600082452DDA4FF0000B0AE023F810600BF19F
:10687000010B33F81060300A8CF8D8008EF8D8601D
:10688000A345E9DA0AEB0400584400EB090E0AEBD1
:106890000B0000EB090C9EF8D8709CF8D86047EA12
:1068A000062623F81060B8F1000F04D1002A14BFA7
:1068B000D6408E40D9E700290CBF9640CE40D4E7A1
:1068C00000201AE006EB090494F8D800FEF78CFBD0
:1068D00084F8D80094F8F800FEF786FB84F8F800F6
:1068E00094F81801FEF780FB84F8180194F8380139
:1068F000FEF77AFB84F83801701CA863AE6B009831
:106900008642DFDB012109F1D800A9630090102342
:10691000A86B000710220021000E01F017FDA96BE3
:10692000491C0529A963F1DBE86B296C50EA0102D7
:1069300002D019B9102804D1002005E0481E2864AF
:1069400001E0401CE8630120BDE8FE8FF8B5DFF8E8
:1069500004040FF28004B0F9146000212046FFF710
:10696000F2FE4FF47A7096FBF0F7FFB20FF68C351B
:10697000012105EB4710FFF7E6FE4FF47A7000FBAC
:106980001766642096FBF0F7FFB2022105EB471073
:10699000FFF7D9FE642000FB17600A2290FBF2F09B
:1069A000C0B2032105EB4010FFF7CDFEDFF84C0A23
:1069B0004078002819BF042105F5F070042105F581
:1069C000D070FFF7C0FE04F12000BDE8F4400521BF
:1069D000B9E6000080804040202010100808040420
:1069E000FE0000000000010102020404080810106B
:1069F0003F0000000000FE040408081010202040A2
:106A00004080800000003F101008080404020201CA
:106A100001000000008080C0C06060303018180C99
:106A20000CFE0000000101030306060C0C181830D0
:106A3000307F00000000FE0C0C181830306060C081
:106A4000C080800000007F303018180C0C06060350
:106A5000030101008080C0C0E0E0F0F0F8F8FCFC29
:106A6000FE00000000000101030307070F0F1F1FB6
:106A70003F0000000000FEFCFCF8F8F0F0E0E0C091
:106A8000C080800000003F1F1F0F0F070703030196
:106A90000100000010B5DFF86829B2F91430642451
:106AA0004FF47A7293FBF4F493FBF2F2A4B221B99F
:106AB000C01800F00EF804D105E0181A00F009F82B
:106AC00001D0032010BD89B2A14214BF02200120D1
:106AD00010BD642190FBF1F14FF47A7390FBF3F059
:106AE00080B292B2904270472DE9F84F974C994F7F
:106AF000DFF85492FFF724FE61789548BD690029BC
:106B000007BFD0F800B04668D0F860B0466ED9F83C
:106B10000C00002835D0606B38B10020606300F0B5
:106B200009FE01F08FFCFFF711FF00F0FBFDB0F54F
:106B3000A07F4FF4C87826D101F084FC00F0F8F86B
:106B400011E0D9F80C001421B0FBF1F1142202FB82
:106B5000110008B9FDF72AFBD9F80C0008B9C9F8EB
:106B60000C8000F0BEFF00F0DDFD00F0C8F8E8D1B9
:106B7000C9F80C80D9F80C00B0F5AF7F3CBF0020FD
:106B8000E071BDE8F18F00F0CDFDB0F5807F20D140
:106B9000D7F814B05E4542DA0020E071012100F020
:106BA000C3F800F0B6F8B8BF3046786100F0A3F83B
:106BB0000028FBD10220E07000F09DF80028FBD1F6
:106BC00000210120FEF717FF7869B04227D101218B
:106BD00022E000F0A7FD402824D17E695E451EDA40
:106BE0000020E071002100F09FF800F08CF8D8BF81
:106BF0005846786100F094F80028FBD10220E0703C
:106C000000F08EF80028FBD100210220FEF7F3FEF1
:106C10007869584503D102210020FEF7ECFE00F010
:106C200087F8A5E700F07EFDB0F5014F2BD1D7F82E
:106C300014B05E455BDAE179B869FA2903DA0A280B
:106C400004BF0A31E171E1790D180120E0700121E2
:106C5000A8B2FFF71FFF00F05CF8B8BF30467861BC
:106C600000F049F80028FBD10220E07000F043F862
:106C70000028FBD100210120FEF7BDFE7869B0425B
:106C800035D1012130E000F04DFD48F2400188424D
:106C90007FF470AF7E695E4529DAE179B869FA2937
:106CA00003DA0A2804BF0A31E171E1790D180120E5
:106CB000E0700021A8B2FFF7EDFE00F024F8D8BF85
:106CC0005846786100F02CF80028FBD10220E070D3
:106CD00000F026F80028FBD100210220FEF78BFEF1
:106CE0007869584503D102210020FEF784FE322046
:106CF00001F0F4FC93E70122102150463DE548F2F3
:106D00004011884270478246ADB2A8197861834528
:106D100070478246ADB2ABEB05007861B042704778
:106D200000221021504628E50120E070A8B2B1E60B
:106D3000002000F0FBBC28B1DFF8C806C06810B125
:106D4000FFF7F7BAD0E67047944200202C030020EA
:106D50007805002028000020DC0200202DE9F843FF
:106D600000F0C8FE401E0728DFF89866DFF88C4662
:106D7000DFF88C866AD8DFE810F00800360145009D
:106D8000DE00910099003601CE00606B012801D130
:106D900000F02BF9607A40B901F06BFB002140460E
:106DA000FDF762FC0120607207E0B06928B97069E4
:106DB00018B1FDF75EFA3220B061706978B9208AA7
:106DC000401C208280B2322805D1E089411EE18139
:106DD000C0B201F06DFAE08908B901F079FA02F069
:106DE00000FE012803D000F09DFC00282ED0D8F82A
:106DF000200070613320E08101F05AFABDE8F143D0
:106E000001F062BA606B28B90120606300F092FC67
:106E100001F018FB00F076FE8146207AB9F1010FEF
:106E200006D008B101F00EFB0020A081207222E004
:106E3000A1894B2908BF002804D101F003FB0120E0
:106E4000207200E0B8B1B06908B13068CBE000F062
:106E50005DFE05466078D8F81470012805D12946F2
:106E600000F0C9F800F0C5F8074639B22846FDF72A
:106E700049FD3220B0613068002804BF207A002824
:106E8000E4D100F043FED8F8141005468142B4BFA7
:106E9000401A081A122800DA0D468CE0DFF868055F
:106EA000007800B10120BDE8F24344E7606B01289F
:106EB00001D100F09AF800F035FC48F24002A17AC6
:106EC000801A07D0C03803D0403808BF002102E044
:106ED000012100E00221A172A07A10B9FDF7A2FC05
:106EE00011E0012802D101F0C4FA0CE002280AD115
:106EF00001214046FDF7B8FBFA2001F0EFFBDFF877
:106F00000C1501200861A07A03286CD0FFF710FF50
:106F10000320A07267E0606B10B9012000F066F8F2
:106F2000606B012804BFB06900285CD1FDF782FEC8
:106F30003220B06157E000F0E9FDD8F810100546A6
:106F40008142B4BF401A081A1328B8BF0D4600F09A
:106F5000D9FD8146207AB9F1010F06D008B101F0C0
:106F600071FA0020A08120721FE0A189322908BF98
:106F7000002804D101F066FA0120207200E0A0B1DF
:106F8000B06900287FF461AF6078D8F810700128EC
:106F900005D129B200F02FF800F02BF8074639B2DE
:106FA00028B2FDF7AFFC3220B0613068002804BF82
:106FB000207A002817D16078012803D129B200F087
:106FC0001AF805462DB20A2095FBF0F109B201200E
:106FD000FDF709F902F002FD01464846FEF7B2F856
:106FE000A089401CA081BDE8F1830020606301F00E
:106FF00029BA054639B20020FDF7AAB810B5DFF866
:107000001014DFF810340A68DFF80C4403FB024266
:107010000A60C2F30E41B1FBF0F200FB121010BD8A
:10702000D0020020602800D3704730B5102917D255
:107030008C1001EB5474E4100125A1EBC40105FA96
:1070400001F1602590FBF5F5641B602505FB04004C
:10705000C318C9B21878002A14BF084388431870AF
:1070600030BD2DE9FB4F904600250026019800EB2E
:107070004604029800EB8509C020002700FB06FAB1
:1070800000985AF80920C0F15F00A0EB4500A0EB82
:10709000070B434621465846FFF7C4FF5AF809201C
:1070A0004346611C5846FFF7BDFF7F1C022FE7DBFC
:1070B000761C082EDADB6D1C302DD6DBBDE8F78F91
:1070C000F8B50023C021DFF85443D048002204EB78
:1070D000830701FB02F500EB8306AE19ED597566D7
:1070E000521C082AF5DB5B1C302BEFDB002300224F
:1070F00000EB830404EB021464694CB1846D456DAC
:10710000E41800EB8404AD1801FB05440125656615
:10711000521C042AECDB5B1C042BE8DB00F26464E9
:1071200000F16403224600210020FFF79AFF0025AA
:107130002346012200212846FFF774FF234601223F
:107140000F212846FFF76EFF6D1C602DF0DB002538
:107150002346012229460020FFF764FF6D1C102DF5
:10716000F6DBF1BD38000020F0B5002817D400226E
:10717000AA4B4FF0C00C8D18002403EB8507A34EDB
:1071800006EB820606EB0416766956B10619082E40
:10719000B8BF302D03DA0CFB067636680EB100203E
:1071A000F0BD641C042CEADB521C042AE3DB012042
:1071B000F0BDF0B591B0042104220023934C0020CF
:1071C000050104EB8306AE19EC4677690CEB830CE2
:1071D00045F80C703FB18B42D8BF1946C0F103058A
:1071E0009542B8BF2A46401C002504287561E7DB9C
:1071F0005B1C042BE3DB002300206D46A5EB03158D
:1072000005EB80052D6B3DB19D1A04EB8505461AF3
:1072100005EB061501266E61401C0428EDDB5B1CA6
:10722000042BE9DBA16D606DFFF79EFF80B90023A1
:1072300000206D46010104EB830205EB83058A18EB
:1072400049595161401C0428F3DB5B1C042BEFDB24
:1072500011B0F0BD58430020F8B52F24C0256F4E63
:107260000120002106EB840205FB0122126802B90D
:107270000020491C0829F5DBD8B16448C16DC4F170
:1072800030020A2303FB0211C16520460CE00021F5
:1072900006EB800205FB01F39F18491C57F8047C9C
:1072A0009F500829F6DB401E0128F0DAFFF708FF9F
:1072B000641C641ED4D5F1BD38B50020534C0021A8
:1072C000226E34F81220012301EB8005AB401A40F6
:1072D00004EB800303EB011318BF0122491C0429AE
:1072E0005A61EDDB401C0428E9DB0020A065042086
:1072F00060650720FFF782FE206631BD10B50020D3
:107300004649002201EB8003C02404FB0233521CD7
:107310000024082A1C60F5DB401C3028F1DB10BD7E
:1073200010B5FFF7EBFF394C042060650020A06525
:10733000E0650720FFF762FE2066BDE81040BBE76E
:1073400000203649C02202FB001212680AB1012057
:107350007047401C0828F5DB00207047F8B52B4C1F
:10736000A56D666D6F1C39463046FFF7FDFEC8B946
:107370002A494FF0C00C002200F052F83BB14319EB
:1073800001EB830397190CFB073301271F60521C85
:10739000042AF1DB401C0428EDDBFFF78DFFBDE87C
:1073A000F14059E7A765F1BDF8B5184CA66D656DBC
:1073B00000E03E46771C39462846FFF7D5FE0028F8
:1073C000F7D1A665C0271549002200F029F843B17E
:1073D000A36DC31801EB8303561907FB063301267F
:1073E0001E60521C042AF0DB401C0428ECDBF1BDBB
:1073F000FC740008700300205C4000202C03002077
:10740000280000209442002003000020E405002012
:10741000080D0020FD430300C39E26005C3A0020B7
:1074200004EB800303EB02135B697047F8B51C4C57
:10743000206818B9FFF774FF0120206002F03FFBBD
:1074400002F030FB616800EB80005F2202FB01006C
:10745000642190FBF1F060600928124C124D11DBA1
:10746000E86978B902F064FB666DA16D0128ACBFD4
:10747000771C771E3846FFF777FE00B13E466665FB
:107480001920E86100F04EF9402818D0B0F5807F4F
:107490000CD0FFF734FC04BF0020206111E000BFD6
:1074A00028430020E405002094420020FFF77CFFE1
:1074B000FFF706FEFFF7D0FEFFF7FEFE01E0FFF745
:1074C00078FE00F02FF908B1FFF732FCA86918B96F
:1074D0003220A861FFF742FFFFF7F2FDFFF730FF10
:1074E00008B1FFF71DFF04F26460009010236022D2
:1074F0000021002000F02AFFF1BD0000000000F88C
:10750000FE0301010103FEFCF00000000000003F4B
:107510007FE0808080C07F3F0700000000000008FF
:10752000040406FFFF00000000000000000000004F
:10753000808080FFFF808080000000000000000647
:107540000701010181C37F3E00000000000000E050
:10755000F0D8CCC6C3C0C0E00000000000000006A8
:1075600007818181C1633F1E00000000000000E030
:10757000C080808181C37F3E0000000000000000C9
:10758000C060380CFFFF000000000000000006078C
:1075900005040484FFFFC48406000000000000FF0F
:1075A000FF8383838383830300000000000000E0E7
:1075B000C080808080C17F3F08000000000000E0A4
:1075C000F89C8EC2C3C18181000000000000003F12
:1075D0007FC080808080C17F3F0000000000000FDE
:1075E0000303030383E33B0F0300000000000000DC
:1075F00080E0781E07010000000000000000187EF7
:107600007EC381818181677E3C00000000001C7E7A
:10761000FFC180808081E37F3C000000000078FE95
:10762000C603010101039EFCF00000000000000100
:10763000018383C361713F0F01000000000000005F
:10764000000000000000000000000000000000003A
:10765000000000000000000000000000000000002A
:1076600000000000F0000000000000000000010128
:10767000010101011F0101010101010000000000E1
:1076800000000000000000000000000000010101F7
:107690000101010101010101010101000E11110EA1
:1076A000E0F80C060301010101021E0000000000C9
:1076B0000F3F70C08080808080402000000000006C
:1076C0000000C0C0C0C000000000000000000000BA
:1076D0000000303030300000000000000814221498
:1076E000080202FE06020202C202061E000000009C
:1076F000008080FF8181010103000000C030080488
:107700000402FAAAFA0204040830C0000718204054
:1077100058A4DBDEDBA4584020180700DFF8700314
:1077200000787047DFF86C0380687047DFF86413F7
:1077300088607047DFF85C1308707047DFF850030B
:107740004078704770B5044600250A26DFF84803E4
:1077500000F0D5FC4519761EF8D10A20B5FBF0F0F3
:1077600040F663729042DFF8281303D30420487078
:10777000002070BD0A2250439022B0FBF2F000229C
:107780000FF2683333F81250A842CD6808D2521C69
:10779000042A05D2022AF5D1002CF3D0A842F6D350
:1077A000501C70BDF0B5BE49BE4A08680968127821
:1077B000C94301F04004B7494B88C04300F400704E
:1077C0000AB100238B80B0F5007F02D10022CA806D
:1077D0005B1C402C04D10022CA808A88521C8A80FB
:1077E0009BB28D880E78AD4A192BA8BF192D04DBEA
:1077F000D6B148F240168E6016E0192B4FF4014EB8
:1078000048F2400705DB7EB11DB992F824603EB115
:1078100009E0192D08DB3EB133B992F8246016B1A6
:10782000C1F808E000E08F604FF480764FF4A07755
:10783000B0B9192B06DA7BB1192D03DA15B18F60B7
:10784000888009E0192B07DA33B192F82400002868
:107850001ABF402088608E60C888401CC880002302
:10786000C4B98888192B06DA2BB1192803DA60B15C
:107870008F60002309E0192807DA30B192F824005C
:10788000002812BF8E6040208860C888401CC880D5
:10789000002088804B80F0BD70B583494A680E781F
:1078A000D3089CB2C5001EB901204D60087009E0E4
:1078B000844234BF041B241AA4B23D2CBCBF8018E0
:1078C000C51A4D60E80870BD38B5002000F0F9FE1B
:1078D0007649774D10200860192000F003FF0A2038
:1078E00021E0002000F0E8FE6968AA6841188242A1
:1078F00038BF0246AA60EA68904288BF1046E86036
:10790000288801280CD1A868081AE968401AC0081C
:10791000FFF7C2FF0446002141F28830E860A96009
:1079200069602888401E288028880028D9D12046F0
:1079300032BD60490A7822B9C000012248600A704D
:1079400007E04A688018931002EB5372A0EBE20044
:107950004860811000EB5170C010704738B50025A9
:10796000534C0A2026E0012000F0A6FE216962693E
:107970004118824238BF02466261A269904288BFC4
:107980001046A0612088012811D16069081AA169F8
:10799000401AC008FFF7CDFF40F6E4414843000B12
:1079A000A0F5FA75002141F28830A0616161216182
:1079B0002088401E208020880028D4D1284632BD4F
:1079C00010B5FFF781FF0446FFF7C8FFB4F5C87F85
:1079D0002F4905D2B0F5967F02DA8C60012000E0D5
:1079E0000220087010BD70B50546FFF76DFF044614
:1079F000FFF7B4FF26494A8840F6FF739C4202D144
:107A00008B885B1C07E00023A4F6D966B6F5937F4C
:107A100034BF521C00224A808B808E884A883C2EBC
:107A2000134617DB0AB903224A703C2E03DA0A2BED
:107A3000BCBF01224A70A5F57A7296235A4340F6DC
:107A4000B83392FBF3F250328968B5F57A7F08D1EA
:107A50000A3A07E0002EE8D10A2BE8DB02224A703E
:107A6000E5E71DB18B18A342B8BFA41AB0F5C87FD3
:107A7000C8BF4FF4C87040F22633611A4FF47A72CF
:107A8000584302FB010090FBF3F000B270BD000010
:107A9000D0020020B442002000280140280000202D
:107AA000080801403003002010430020140C01405E
:107AB000E00200201843002010B5044645F255505E
:107AC00002F042F8032002F042F80A20604340032B
:107AD000000C02F03FF802F040F802F043F80120F9
:107AE00010BD80B502F039F8012002BD2C019600CE
:107AF0005A002800DFF8500400787047DFF8481477
:107B000008707047DFF84004008C7047DFF83804D5
:107B1000B0F92200704728220FF2A041DFF82C04B0
:107B200001F0E6BEDFF8200400210181418181815E
:107B3000C181C16101610F2181820221C1820121C4
:107B400001837047DFF8001470B548810546B1F92C
:107B50000830CE69581B8881002400B2B0F5FA7F46
:107B6000BCBF01248619AB4205DAEB1A1BB2152BF8
:107B7000A4BF00260024CE611F28B4BF0023012328
:107B8000CE8A8D8A7443CE69744300FB0544B1F9F3
:107B90000E600D8BC881821B6A4303FB0242012ADF
:107BA000B8BF002205DB41F271708242A8BF41F2EA
:107BB00070720A6190B270BDDFF88C238842118127
:107BC00004DA091A122904DB002105E0411A1329FD
:107BD00001DA022100E001211184B3E7F8B5DFF8F2
:107BE0006853DFF86C732878DFF8684301284FF496
:107BF0007A760ED0032859D0042800F0CD800528CD
:107C000000F02281082800F06681092800F05481E4
:107C1000F1BDFFF787FD402811D0B0F5807F26D158
:107C20006878012823D000F0BCF904281FDA03206B
:107C300028700020A8842060A061606117E0687847
:107C4000012814D00120E87000220FF25C310020DE
:107C5000FDF75FFB0020FEF7FAFBE66000F0F2FBA9
:107C6000BD4907200870052028703220E06168783F
:107C700020B1E06910B96870FFF758FD00F091F984
:107C800040B9FCF755FA012804BF0020FCF754FA6C
:107C900008202870A878042818BF012805D0A86CEF
:107CA000606100F06AF90120A870F1BD287948B13F
:107CB00000202871A94801F061FF0120FFF73AFD7B
:107CC00000F05BF9FFF72EFD48F24001401A04D0A6
:107CD000C03802D040380FD018E000F054F900F05E
:107CE000B1FB0020E8700520287000F046F9002064
:107CF0006060E660962008E000F0E3FC00F040F9E8
:107D000001202870A87068703220E06100F049F905
:107D1000042807DB00F037F900F032F900F03AF9F7
:107D20003220E061EE6B387810B100F02FF9064692
:107D3000606848B930B2FFF756FE00F019F900B29A
:107D400000F0BFFC1E20606000F0BFFC00B9606066
:107D500001F047FE90B9A88C18B90120A884686C7E
:107D6000A060A06860B92884A06100F0AAFC00F0BF
:107D700004F9A86C60610420287001E00020A88448
:107D8000FFF7DCFC022890DBFCF7D2F9012804BFE6
:107D90000020FCF7D1F955E0AE6B387810B100F057
:107DA000F5F80646E96BA86B814207DA387820B10E
:107DB00009B200F0ECF8064600E00E46606848B9EB
:107DC00030B2FFF710FE00F0D3F800B200F079FCFB
:107DD0001E20606000F0E5F804280DDB00F0D3F809
:107DE00000F0CEF801202870A86C60610420A87013
:107DF000012068703220E061606958B900F061FCD0
:107E000000F0BEF801206870C820E0610420A8706E
:107E10000120287001F0E5FD012802D0FFF782FC67
:107E200028B10020A0616061A88403202870FFF7BA
:107E300085FC02284EDBFCF77BF9012804BF0020FB
:107E4000FCF77AF9082044E0E06820BB444E0120AA
:107E500030706061E878012803D100F0F0FF01F094
:107E600064F90020307001202871E87858B9FFF7D4
:107E700061FC00F082F83B4801F080FE032028708E
:107E80000020206007E000F07EF800F079F800F0B4
:107E900081F86420E061FFF745FC48F24011884218
:107EA00004BFE87800284DD1E060FFF73FFCBDE853
:107EB000F2400020FFF73EBCE06920B1BDE8F2408F
:107EC0000020FFF733BCFFF72DFC00283AD0E66016
:107ED00003202870F1BDFFF731FC801E012803D973
:107EE000801E012814D926E0AE6B387810B100F05E
:107EF0004DF8064630B2FFF776FD6884FFF71EFCAA
:107F0000012818D1032028700020FCF715F912E091
:107F100000F047F801280EDB00F043F804280ADAE5
:107F200000F031F800F02CF8012068700220A06108
:107F3000A870012028700C4820B100F024F80B49EB
:107F400010200860F1BD0000000000202800002083
:107F50002D030020944200203203002080969800D8
:107F6000D0020020C0C62D00CB860008140C0140B2
:107F7000688431B2B5F922001EE60020FFF7D6BBB7
:107F80000020FFF7D7BB002000F09BBB31B20120DF
:107F9000FCF7DEB8012028700320A870012068706B
:107FA00070470120FFF7CEBB20202020202020207A
:107FB000202020202020202000000000322E3137F9
:107FC000000000000000000000000000D0070000DA
:107FD000B80B00006400000050460000A08C0000B8
:107FE0000000000080B55649884208D101214FF4B5
:107FF000007001F010FF00214FF4007016E05149AD
:10800000884208D101214FF4806001F004FF002173
:108010004FF480600AE04C4988420BD101214FF4B3
:10802000004001F0F8FE00214FF40040BDE804409C
:1080300001F0F1BE01BD4268444B1A400B681A437F
:108040000B7942EA03224260414B82681A40CB68B6
:108050001A438B681A434B7942EA43028260C26A30
:10806000097C491E22F47002C9B242EA0151C16280
:1080700070470029816812BF41F001014908490099
:10808000816070470029816814BF41F4807121F438
:10809000807181607047816841F00801816070479C
:1080A0008068C008FFE700F0010070470029816880
:1080B00014BF41F4A00121F4A0018160704770B5A4
:1080C00000F025F81F24072A07DA521E02EB82026D
:1080D000436B00F017F8416370BD0D2A07DAD21F19
:1080E00002EB8202036B00F00DF8016370BD0D3AE4
:1080F00002EB8202C36A00F005F8C16270BDC06C79
:1081000080B270479440A3439140194370470724BD
:108110000A290BDBA1F10A0505EB4505C668AC4051
:1081200026EA0404AB402343C360704701EB4105DA
:108130000669AC4026EA0404AB4023430361704760
:108140000024014000280140003C0140FFFEF0FFF8
:10815000FDF7F1FF002201F08DBE30B500220028AE
:1081600003D52D220A70404201220A2390FBF3F32B
:1081700001240A2502E093FBF5F36C43002BFAD1AE
:108180005CB190FBF4F303F13005555404FB13008C
:108190000A23521C94FBF3F4F2E7002050540846E3
:1081A00030BD0CB42DE9FC41044600260027002C0C
:1081B0000D466BD00DF1200803E0715D395507467F
:1081C000761C715D00295ED0781C2529F5D1761CBE
:1081D000715D632906D0642912D066291FD07329E6
:1081E00003D0EAE758F8041BE8E758F8040B00212D
:1081F0000A5C002A1EBF3A55491C7F1CF8D1DFE7F4
:1082000058F8040B6946FFF7A8FF00216846085C90
:1082100000281EBF3855491C7F1CF7D1D0E758F8FD
:10822000041B481E092824BFA1F10A005A28C7D3FD
:108230000A20A1F16402B2F5617F10D200F031F89A
:10824000E170042700F026F8A2702E2262700A2244
:1082500091FBF2F200FB121030302070B0E7A1F574
:108260007A7242F228339A42AAD200F01AF82171A7
:10827000052700F00FF8E2702E22A27000F011F82E
:1082800061701146E3E7002038552046BDE8F6014D
:108290005DF80CFB0A2192FBF1F100FB1122303258
:1082A00070470A2291FBF2F200FB12113031704745
:1082B00080B50FF20042136800938DF803003C2252
:1082C000042100F011F801BD00B50FF2043102E005
:1082D00000B50FF2043183B00CC9684606210CC00A
:1082E00000F001F807BD3C22684601F00FBD10B553
:1082F000A0B00C4640218DF800106B46411CC9B25D
:10830000012003E014F8012BC254401C8842F9DB21
:10831000FFF7E9FF204620B010BD30B50FF2C023B3
:1083200083B030CB6A46434B30C293F82430012BE4
:1083300018BF20308DF805003C229DF80100081878
:108340008DF801000821FFF7CFFF37BD2DE9F0417F
:1083500004469046CE0807205A180142D2B218BFF0
:10836000761C900802EB5070C508B2EBC50002D134
:10837000069FEDB20BE06D1CFAE731462046FFF791
:10838000CCFF39464046FFF7B2FF0746761CF6B2EF
:10839000AE42F2DB3846BDE8F08130B5A1B004460C
:1083A0000D4601A8FFF7D6FE00F05FF82A4600212F
:1083B000E0B2FFF7CBFF00F058F82A460821E0B200
:1083C000FFF7C4FF21B030BD80B54FF48070ADF829
:1083D0000000694603208DF8020010208DF803008C
:1083E000154801F061FD01BD10B5144C4FF48071CA
:1083F000204601F0BDFD022000F070F94FF48071BD
:10840000204601F0B3FD022000F068F909490C484C
:1084100091F82410012903D1C821C172A12102E0E1
:10842000C021C172A021C1743C22BDE810402E21A0
:1084300001F06CBC28000020000C01400008014045
:10844000FC02002000B5A1B0802101A8FFF782FE48
:1084500000F00BF8802200F0B7F800F006F8802258
:10846000082100F0B2F821B000BD01A80090082357
:1084700070472DE9F041A2B0802102A8FFF76AFE03
:10848000002201A90FF2601000F0F8FC01250400A1
:108490007DD02078422804BF60784D2840F0868047
:1084A00004F136000178FF2904BF4178FF2903D188
:1084B0008078FF2808BF002500F081F801260F27EB
:1084C000002000210C2202FB07121219802392F8CF
:1084D0003E204FF0080C03EA020E1DB1BEF1000F62
:1084E0000CD102E0BEF1000F08D00DF1080E864459
:1084F0009EF8018046EA08088EF8018000F059F8DD
:10850000E9D1491C0C29DDDB7606360E7F1E082FCB
:10851000D6DA02A800900823602200F055F8FFF791
:10852000E0FA00F04CF801260027002000216FF04F
:108530000B0202FB07121219802392F892204FF0CF
:10854000080C03EA020E1DB1BEF1000F0CD102E0CF
:10855000BEF1000F08D00DF1080E86449EF8018090
:1085600046EA08088EF8018000F023F8E9D1491C9A
:108570000C29DCDB7606360E7F1C082FD5DB02A823
:10858000009008236022082100F01FF808E00FF295
:10859000640000901023602200210020FFF7D6FE27
:1085A0004FF47A7000F09AF8FFF79BFA22B0BDE81A
:1085B000F0815B08401CBCF1010CC0B270477F2108
:1085C0000DF1090001F000BD00210020BEE6000011
:1085D000808D801480AF0000808D801080AE000000
:1085E00080B080218020807F4C4F474F494E202013
:1085F000424D50000000000000000000000000009C
:1086000000000000000000000000000080C0E0F05A
:10861000F8FCFEFEFCF8F0E0C080C0E0F0F8FCFEE4
:10862000FEFEFC783080C0C000189CCEE6F0F8FC5E
:10863000FEFEFCF8F0E0C0E0F0F87C000000000076
:10864000000000000000000000000000000000002A
:10865000000000000000000000000000000000001A
:1086600000000000000000000000001F0F070301D1
:1086700003070F1F3F7F7F3F1F0F070301030707FC
:1086800003191C0E6773391C0E07030103070F1F24
:108690003F7F7F3F1F0F0703010000000000000025
:1086A00000000000000000000000000000000000CA
:1086B0000000000080818000DFF8081431F810000D
:1086C0007047DFF80414C8607047DFF8FC03C06827
:1086D00070472021DFF8F40301F076BCDFF8E813DF
:1086E000142202E0DFF8E0130A2250438860886811
:1086F0000028FCD17047DFF8D8134FF400620A61FC
:1087000000284FF480520A6108680AD120F44040E2
:1087100040F440500860086820F4402040F44030A5
:1087200009E020F4804040F430400860086820F4FC
:10873000802040F430200860704780B501F022FBB3
:10874000102001F04BFC012001F042FCE148E24A1C
:10875000416811434160016841F08071016001206E
:1087600001F029FB012001F029FB392001F05CFB1D
:108770000028FAD0022001F024FB01F029FB082890
:10878000FBD10121052001F02BFB012140F20C60FF
:1087900001F02FFB0121032001F034FBBDE8024072
:1087A000012001F01ABB80B501464FF0006001F0D6
:1087B000C8FC4FF4A06001F093FC14208DF8000079
:1087C00002208DF8010000208DF8020001208DF8B4
:1087D0000300684601F089FC01BD38B58020ADF882
:1087E000000000208DF803006946BC4CBC4D2046BB
:1087F00001F05AFB4FF4807000F021F80121B948D4
:1088000001F0B8FB102000F01AF80120ADF80000CC
:108810006946002000F01AF80220ADF80000694611
:10882000002000F013F84FF41070ADF80000694616
:1088300048208DF80300204601F036FB31BDADF82D
:108840000000694603208DF8020010208DF8030017
:10885000284601F029BB2DE9F041A34E90B03046E7
:1088600001F084FCA148DFF88882059005A99548AD
:1088700006904FF46027002007904FF42044022018
:10888000089025460020099080200A904FF48070BF
:108890000B904FF480600C9020200D904FF400500E
:1088A0000E9000200F90304601F0ADFC01213046C3
:1088B00001F0C4FC8F4E3046FFF794FB00F053F8F4
:1088C00002208DF810003046FFF7B5FB4046FFF759
:1088D00089FB00F048F801208DF810004046FFF7B2
:1088E000AAFB0723022207213046FFF7E8FB0723F4
:1088F000012208213046FFF7E2FB0523012209216E
:108900004046FFF7DCFB01213046FFF7BBFB0121AE
:108910003046FFF7AEFB01214046FFF7AAFB304689
:10892000FFF7B9FB3046FFF7BBFB20B12846451ED9
:108930000028F7D114E04046FFF7ADFB254640463E
:10894000FFF7AEFB20B12846451E0028F7D107E00F
:1089500001213046FFF7AAFB01214046FFF7A6FBA5
:1089600010B0BDE8F08100200090029701208DF842
:1089700004008DF80500694600200390704700B59B
:1089800085B04FF4E06001F0ABFB2F20ADF80400A0
:1089900001A942F20F70ADF808000020ADF80A00FE
:1089A000ADF806004FF0804001F06EFC00F060F87A
:1089B00001F0C0FC012200F05BF801F0B3FC00F014
:1089C00057F801F0A5FC1C2000F02AF805B000BD06
:1089D0001FB54FF4E06001F083FB2F20ADF80400D9
:1089E0003120ADF808004FF48070ADF80A00002087
:1089F000ADF8060001A9404C204601F045FC0121DC
:108A0000204601F097FC01220121204601F08AFC5A
:108A10000121204601F07CFC1D2000F001F81FBD63
:108A20008DF8000000208DF8010001208DF8020073
:108A30008DF80300684601F058BB10B500F018F837
:108A400001F082FC00202D4C04EB80014A6812B139
:108A50004A68521E4A60401C0828F5DB2078411CF9
:108A60000228217003D1FEF79DFE0020207010BD6A
:108A700001214FF08040704780B501211E4801F070
:108A800063FC1148416811B14168491E4160816829
:108A900011B18168491E8160C1680278184B49B1E3
:108AA000C168491EC160002A19BF102159601021F8
:108AB0001960D243C16811B91021596000220270B7
:108AC00001BD000040430020DC4200209442002011
:108AD00004080140001002400A84680000080140B8
:108AE000000C014000013000080002404C2401400D
:108AF0000028014000240140000400409042002072
:108B0000100C014070470000F8B564240A230829BE
:108B1000DFF8042B0DD8DFE801F0050D1543667969
:108B2000A4AEB50000F09FFB002902D100F0DBF8F5
:108B30001060F1BD00F097FB0029FAD100F0D3F8E6
:108B40005060F1BDC17846788578A1F1300CBCF158
:108B50000A0F08D200784FF47A77664307FB00606B
:108B600000F0B1F814E0A5F130010A2907D200782D
:108B700003FB06F104FB001000F0B0F808E0A6F1DA
:108B800030010A2904D2007803FB0060A0F50477C5
:108B900000F094F803D13FB204FB07F0D060F1BDC0
:108BA000C1788578A1F130060A2E09D2067840787E
:108BB0004FF47A77604307FB060000F084F80AE080
:108BC000A5F130010A2906D201784078584304FB08
:108BD000010000F083F800F071F86ED13FB204FBA1
:108BE00007F01061F1BD46780778A6F130000A2839
:108BF0003ABF03FB0760A0F50477303F00F05EF852
:108C00005BD13FB203FB07F09060F1BDC1784678BD
:108C100007788578A1F130000A2808D24FF47A70DD
:108C200004FB06F200FB072000F04DF80FE0A5F171
:108C300030000A2802D200F04DF808E0A6F130001A
:108C40000A283ABF03FB0760A0F50477303F00F025
:108C500035F832D13FB2DFF8C41903FB07F00860E2
:108C6000F1BD00F000FB41BBBDE8F24000783038B8
:108C7000C0B2FBF765BA00F0F6FAF1B90078303807
:108C80001075F1BD467807788578A5F130000A287F
:108C900002D200F01FF808E0A6F130000A283ABF1F
:108CA00003FB0760A0F50477303FDFF87409007814
:108CB00018B9DFF870093FB20760F1BDDFF860094D
:108CC00000780028704703FB0500081800F53C57A2
:108CD000B037704703FB06F004FB0700281841F289
:108CE000D041471A70474578017880785D4304FB8E
:108CF0000151401841F2D041401A00B25843704728
:108D000030B508291DD8DFE801F005053B4B576257
:108D10006F6F7500DFF8103981781B78A1F1300290
:108D20008BB90A2A3EBF4478A4F130020A2A15D230
:108D30000378352B16DA342B03D1302C08BF3029B9
:108D40007BD1012030BD0A2A3EBF4478A4F1300215
:108D50000A2A3EBF0378A3F1320007286DD2372BD1
:108D600006D1362C69DA352CEBD1332965DAE8E700
:108D7000322BE6D1312C60DBE3D13329E1DB5CE03F
:108D8000C17830390A2922BF817830390A29D8D3ED
:108D9000417830390A2950D20078363804281EE04C
:108DA000C17830390A29CCD3817830390A2944D2A4
:108DB00000783138092812E00378407830380628E6
:108DC00003D2A3F13000032809E0302B0AE0037836
:108DD00040783038032804D2A3F130000A28B0D3F9
:108DE0002BE0352BADDA28E00378312BA9D0302BDE
:108DF00023D1A6E74478037881780A20A1F13005D1
:108E00000A2D08D26425604305FB0300081841F2CF
:108E1000D041401A09E0A4F130010A293ABF00FB11
:108E20000340A0F50470A3F13000012A89D1DFF8D6
:108E3000F417096880B2884283D0002030BD10B595
:108E40004FF41852DFF8E417DFF8E40700F060FD94
:108E5000DFF8E00700210022002300241EC010BD1F
:108E600010B5002207E0135CA3F161041A2C3CBF8B
:108E7000203B1354521C8A42F5DB10BD2DE9FF4103
:108E8000DFF8AC4780460E4604F5806710250B22BC
:108E9000394601A800F02CFD0B2101A8FFF7E0FFE7
:108EA0000B22414601A801F067FAA0B907F11C00A6
:108EB000017831704178717007F11A0002788DF8ED
:108EC000002042788DF80120BDF8000004EB40201E
:108ED00000F5007003E020376D1ED8D1002004B0EB
:108EE000BDE8F0812DE9F34FADF50F7D40F23B1168
:108EF00040A8FFF72FF9DFF840578F994FF4007221
:108F0000284600F0F5FC4FF000080024002640A899
:108F10002321002701FB060905E0232F3CBF07F8AA
:108F200009007F1C641C284601F058FA844206D2CE
:108F3000605D0D2802BF611949780A29EDD1A41C92
:108F4000761C07F80980092EE1D30026DFF8C876E1
:108F5000DFF8E09605EB860009EB860AD0F80042C0
:108F6000204601F03BFA40A9232202FB061B0246E1
:108F70002146584601F000FA002807D1204601F0AA
:108F80002DFA044604E0202818BF3D2879D1641C3E
:108F9000584601F023FA844273D214F80B00A0F172
:108FA00030010A29EFD2302803D1062E18BF072E30
:108FB00067D15C440022F1B22046FFF7A1FE0028F1
:108FC0005FD0F1B22046FFF79FFD3EB938680A2115
:108FD00090FBF1F20FF2806140A84FE0012E07D123
:108FE00078680A2190FBF1F248A80FF2786129E035
:108FF000022E08D1F8686421B0FBF1F20FF2706123
:109000000DF5A3703AE0032E07D138696421B0FB57
:10901000F1F25AA80FF2646126E0042E07D1B86875
:109020000A2190FBF1F20FF2606163A826E0052EA1
:109030000AD1DFF8E80500680A21B0FBF1F26BA85D
:109040000FF25061C01C19E0062E07D1FBF77CF827
:1090500002460FF24C610DF5E9700FE0072E05D1C5
:109060003A7D0FF244617DA8401C07E0082E1BD119
:10907000DFF8B0050FF23861026886A8FFF791F8B3
:1090800012E0584601F0AAF90146584600F09CFF4C
:10909000DAF81440204601F0A1F90246214658466C
:1090A00000F026FC4FF00108761C092EFFF452AFA9
:1090B000FE216846FFF74EF8002540A8232101FB5A
:1090C0000501684601F0A5F909EB85006D1C816B6F
:1090D000684601F09EF9092DEFD3684601F07EF94C
:1090E000BDF84022DFF8481501EB421202F21C42A3
:1090F00001F580611070000A50708F98401A00F5D9
:109100000070411200EB91508012012100F809100B
:10911000684601F063F902468F98694600F0E8FB63
:1091200040460DF5117DBDE8F08F2DE9F047C2B046
:109130000020ADF800006A460FF280570DF10201E1
:109140003846FFF79BFEDFF8E88450B1BDF8001009
:10915000FFF7C8FE00F087F808436DD000F03DF936
:109160006AE00FF264546A460DF102012046FFF7EF
:1091700085FE010008F21645DFF8C0644FF4185967
:109180001BD0FE2201A800F0B3FB49464046FEF783
:10919000E1FF0ECC08F584600EC0FE2201A908F59F
:1091A000006000F0B5FB00206875032108F23A402A
:1091B0002E620170FE21817003E049464046FEF7B1
:1091C000C9FF0ECF08F580600FF21C770EC0062293
:1091D0003946404600F09CFB0622394608F50070EF
:1091E00000F096FB4FF000090027DFF8480400EB81
:1091F00087047F1CD4F814A0504601F0EFF800F06B
:109200002AF8606901F0EAF8D4F838A081445046A1
:1092100001F0E4F800F01FF8A06B01F0DFF8092F6F
:109220008144E2D3002088F80B042E6002202871CC
:1092300085F8069000F0FAF808F520500C3000216F
:10924000C17601774176016081600161C1600020D3
:1092500042B0BDE8F087024609EB0800514600F530
:10926000C06000F045BBDFF8B813097870472DE9FE
:10927000F0438846B8F5805F85B004464FF400752A
:10928000DFF8AC9309D12A46494601F075F8002869
:109290006FD02A46214648460DE0B8F5205F0DD133
:1092A00009F500762A46314601F066F8002860D0BC
:1092B0002A462146304600F01BFB5AE0B8F5804FA5
:1092C000DFF870632FD109F580672A46394601F02F
:1092D00053F800284DD02A462146384600F008FBB6
:1092E0000120707010250FF2D4370C2221466846F9
:1092F00000F0FEFA0B223946684601F03DF840B90D
:10930000A07E708201203074207F40B10120307037
:109310002FE020346D1EE8D1307C0028F6D00020EC
:109320003074308025E0A8F50047B7F5005F20D8FD
:1093300008EB0900A0F5F4492A464946204601F009
:109340001BF820B12A462146484600F0D1FA708A1F
:10935000790A891C814206D1811E89B24846FFF7ED
:10936000C1FD40B905E0A8F5FC4006EB90200121C5
:10937000417000F032F805B0BDE8F08338B504461E
:109380000D46FFF7BFFB4FF4007215B90FF25831CD
:1093900018E0B5F5805FA64914D0B5F5205F08BF89
:1093A00001F500710ED0B5F5804F08BF01F5806161
:1093B00008D0A5F50040B0F5005F08D805F10061C0
:1093C00001F58C412046BDE8384000F091BA1146C5
:1093D0002046BDE8344000F0F7BDF8B500F008FEC7
:1093E00000209449425CD2B1904D00224254840244
:1093F000281901F02EF88E482618002736F8021B8F
:109400003819281801F014F8042803D000F0FAFDE8
:109410000420F2BDBF1CB7F5806FEFD302E0401C03
:109420001028DFD300F0EEFD0020F2BD70B500F093
:10943000DFFD7F4C7D4E002506EB852001F009F80D
:109440006D1C092DF8DB002534F8021B701900F0A3
:10945000EFFF042801D0042070BDAD1CB5F5185FE6
:10946000F2DB00F0CFFD002070BD70B5704B744D85
:1094700003F520541834227A12B900F08BF82072C8
:10948000207A012831D1206878B903F51856296867
:109490003046FFF773FF40229821304600F0EEFF80
:1094A0004FF4E070206040200CE0A868C018402213
:1094B000982100F5185000F0E1FF20684038206046
:1094C000A8684030A8604021012001F07FF83021D9
:1094D000012001F004F828684030286068684038AE
:1094E00068605848816840398160686838B9206090
:1094F000A86028600320544908700020207270BDC5
:10950000F8B54B4A514D02F5205454F81C3F2679CA
:10951000403316B900F03EF82071207901282AD195
:1095200000204B4908E0B618475C06F51856401C69
:1095300037702668761C266026689E42F3D36B68D7
:10954000444E296830884118181A68602960C0059F
:1095500007D100202060A1F5007102F51850FFF737
:1095600086FE384832888168891A816002204FF46B
:10957000405100F0C3FF686800281EBF32480078E1
:10958000042806D100202060012101F086F9002086
:109590002071F1BD400228604802686001207047D8
:1095A00010B584B068460021002200230EC01E4979
:1095B0001A4A1B4C0020087044F250611648C160E2
:1095C00048F6A0410161642181601160037540F695
:1095D000B83141604FF4FA61016001202070FFF75B
:1095E0002EFCFFF7A2FD0020207068460FF2E40178
:1095F000FEF7D7FD4FF4FA70FFF770F8FEF771FA37
:1096000069460020FCF750FA4FF47A70FFF766F8CD
:10961000FEF767FA1FBD000038000020DC020020C2
:10962000D0020020D80200202D03002000C0000836
:10963000201200207402002050000020188DDD4010
:10964000FC420020EC4200205C4200200843002045
:10965000FC4100205E42002053746254656D703DF1
:1096600025640000576B54656D703D256400000053
:10967000536C7054696D653D2564000049646C54F9
:10968000696D653D2564000054656D705374703DCF
:10969000256400004F6666566F6C743D25640000BB
:1096A00054656D703D25640048616E643D2564001D
:1096B0005A65726F505F41643D256400434F4E46CA
:1096C00049472020545854004C4F474F494E2020C2
:1096D000424D5000496E697469616C207375636313
:1096E0006573732100000000EB3C904D53444F53D1
:1096F000352E3000020108000200025000F80C0074
:10970000010001000000000000000000000029A28C
:1097100098E46C4E4F204E414D452020202046417C
:1097200054313220202033C98ED1BCF07B8ED9B881
:1097300000208EC0FCBD007C384E247D248BC19956
:10974000E83C01721C83EB3A66A11C7C26663B0751
:10975000268A57FC750680CA0288560280C3107399
:10976000EB33C98A461098F7661603461C13561E3B
:1097700003460E13D18B7611608946FC8956FEB8DC
:109780002000F7E68B5E0B03C348F7F30146FC119C
:109790004EFE61BF0000E8E600723926382D7417CE
:1097A00060B10BBEA17DF3A66174324E740983C70C
:1097B000203BFB72E6EBDCA0FB7DB47D8BF0AC982C
:1097C00040740C487413B40EBB0700CD10EBEFA02F
:1097D000FD7DEBE6A0FC7DEBE1CD16CD19268B558A
:1097E0001A52B001BB0000E83B0072E85B8A5624C5
:1097F000BE0B7C8BFCC746F03D7DC746F4297D8CB3
:10980000D9894EF2894EF6C606967DCBEA03000052
:10981000200FB6C8668B46F86603461C668BD0667A
:10982000C1EA10EB5E0FB6C84A4A8A460D32E4F729
:10983000E20346FC1356FEEB4A525006536A016A95
:1098400010918B4618969233D2F7F691F7F642872D
:10985000CAF7761A8AF28AE8C0CC020ACCB80102AA
:10986000807E020E7504B4428BF48A5624CD1361B7
:1098700061720B40750142035E0B497506F8C341E6
:10988000BB000060666A00EBB04E544C445220208E
:10989000202020200D0A52656D6F76652064697363
:1098A0006B73206F72206F74686572206D656469D8
:1098B000612EFF0D0A4469736B206572726F72FF2F
:1098C0000D0A507265737320616E79206B65792083
:1098D000746F20726573746172740D0A0000000069
:1098E000000000ACCBD855AAF8FFFFFFFFFF000037
:1098F00062B38B0708D0521E11F8013B00F8013B00
:1099000000F024808B07F6D1830740F0208000BF51
:10991000103A07D330B4B1E83810103AA0E8381044
:10992000F9D230BC530724BFB1E80810A0E80810F2
:1099300044BF51F8043B40F8043BD20724BF31F840
:10994000022B20F8022B44BF0B7803707047083AB3
:1099500007D3B1E80810083A40F8043B40F804CBBC
:10996000F7D25307E4E7F0B4016844688368091844
:1099700001EB5402E40748BF4B440C3091422BD01A
:1099800011F8014B14F0030504BF11F8015BED1C45
:1099900026090F2E07D111F8016B0F3603E011F8DD
:1099A000017B03F8017B6D1EF9D1002EE6D0A408DF
:1099B00011F8015B04F00304032C08BF11F8014BFC
:1099C00005EB04241C1BB51CD8D014F8016B03F85C
:1099D000016B6D1EF9D1D1E7F0BC70475848C089C2
:1099E000704758480088704700B585B08DF8000072
:1099F0008DF801101D220221684600F087F90DE064
:109A000000B585B003468DF800001D22012168468F
:109A100000F091F99DF8000049490873012005B054
:109A200000BD80B500212A20FFF7DEFF02210E20B5
:109A3000FFF7DAFF03212A20FFF7D6FF00212B20B2
:109A4000FFF7D2FFBDE8044001212A20CCE770B522
:109A50001C460023002500F110069642A6BFA0F187
:109A60001006B242012301F11006A642A6BFA1F1E1
:109A70001006B442012300F120069642A6BF20380A
:109A80008242012501F12000A042A6BFA1F12000E1
:109A9000844201252B480580184670BD284801786E
:109AA000407802E026480179407940EA0120000927
:109AB000802903DBC043401C0005000D7047F0B552
:109AC0001F4C83B006212046FEF744FB0020FFF721
:109AD00097FF18B3207B000720D5012700256E468D
